S018000053445F4D4D435F4558414D504C4532312E737265636B
S214400000483B0020911D40008D1D40008D1D400046
S2144000108D1D40008D1D40008D1D400000000000DD
S2144000200000000000000000000000008D1D4000A1
S2144000308D1D4000000000008D1D40008D1D4000BD
S2144000408D1D40008D1D40008D1D40008D1D4000C3
S2144000508D1D40008D1D40008D1D40008D1D4000B3
S2144000608D1D40008D1D4000000000008D1D40008D
S2144000708D1D40008D1D40008D1D40008D1D400093
S2144000808D1D40008D1D40008D1D40008D1D400083
S2144000908D1D40008D1D40008D1D40008D1D400073
S2144000A08D1D40008D1D40008D1D40008D1D400063
S2144000B08D1D40008D1D40008D1D4000000000003D
S2144000C000000000000000000000000000000000EB
S2144000D000000000000000000000000000000000DB
S2144000E000000000000000000000000000000000CB
S2144000F00000000000000000000000008D1D4000D1
S2144001008D1D40008D1D40000000000000000000D6
S214400110000000000000000000000000000000009A
S214400120000000000000000000000000000000008A
S214400130000000000000000000000000000000007A
S214400140000000000000000010B5054C237833B9CD
S214400150044B13B10448AFF300800123237010BD55
S214400160700A002000000000BC8D40000C4B43B1DC
S2144001700C480D4910B5AFF300800C48036823B90E
S21440018010BD0A48036833B97047094B002BF7D0B7
S214400190BDE810401847064B002BF5D0184700BF67
S2144001A000000000BC8D4000740A0020BC8D40005A
S2144001B00000000010B5074B196891F82230003354
S2144001C018BF01234A7C096803480078034CA047BF
S2144001D010BD00BF8C0A0020950A0020DD0E4000AE
S2144001E008B104207047334B9A68530903F500134F
S2144001F003F207735B02D96B02F01F02012303FA76
S21440020002F20A4210D02B4B9B7B012B04D00422D7
S214400210284B9A7302207047274B1B78002BF6D04A
S2144002200022264B1A60F2E710B5224B9B7B042B2C
S21440023005D0012B19D0032B2CD1032010BD012251
S2144002401C4B9A731D4B1B683BB91B4B1A701B4BC0
S2144002501B4959601A60022010BD0022164B1A70C6
S2144002601848194B9847022010BD134B1B783BB1DA
S214400270124B1B6813F4803F1AD000220F4B1A60B3
S2144002800C4B02229A73114A1A6001225A740022B9
S21440029083F8222000220E4B1A70064C0D4B1C6031
S2144002A00D4B9847A07B022814BF0020012010BDAC
S2144002B0022010BD94000020940A002010E000E0C8
S2144002C0D8DDE40025C9820001000020801A06001F
S2144002D0950A00208C0A0020B501400038B5049CE1
S2144002E0520242EAC36242EA017242EAC07221788E
S2144002F0114341F23430054B9847054608B9284625
S21440030038BD034B98472070F9E700BF0511400001
S2144003101D1140002DE9F041094C0027094E0A4DB9
S214400320394641F60D30B047804630B1A847C0B296
S21440033018B1013CF4D14FF000084046BDE8F081CA
S214400340410D0300051140001D11400010B582B05C
S2144003500D4B1B68998901230093102291400B484E
S2144003600B4CA047034610B9184602B010BD064BCA
S214400370186801211230074B984703460028F3D0EF
S214400380054B98470346EFE78C0A00200911080002
S2144003907D0F40009D1140001912400008B5044BE7
S2144003A01B7803B108BD0020024B9847FAE700BF10
S2144003B0950A00201D0F400008B50B20054B9847B6
S2144003C00422054B9A73FF22044B1A70044B98473D
S2144003D008BD00BFC519400094000020950A0020C3
S2144003E0AD0E40002DE9F04387B0A64B9847044633
S2144003F0012805D0A44B9847204607B0BDE8F083B7
S214400400A24B1B680122DA7300251D749D81A04B08
S214400410984729464FF488509E4B984730B99B4B97
S2144004201B6803249C73984B9847E5E74FF4D571B7
S21440043045F20850974B984700282FD100270021B7
S21440044044F20550934B9847002834D18F4B1B6895
S214400450DB7B13F0010F52D18C4B1B68DB7B13F018
S214400460040F40F00F82894B1B68DB7B03F00903C7
S214400470012B00F07682854B1B68DB7B13F0010F67
S21440048003D0854B98470028C9D0844B98477F4B6C
S2144004901B6800229A737C4B9847ADE7804B984781
S2144004A0B0F1FF3F00F06782C0F30B00B0F5D57F98
S2144004B0B5D10127C3E77A4B984710F0E04FC5D037
S2144004C041F2893544F20558724EDFF8D49100F473
S2144004D0FC114046B0470028A1D0C847002802DBA0
S2144004E0013DF4D19BE710F0006F04D1674B1B68C9
S2144004F00422DA73B0E7654B1B680522DA734FEACD
S214400500877941F6EF354FF00008624E644F41461A
S21440051041F23710B04788B1494641F22910B047FA
S21440052060B1B84710F0010F02D0013DEFD105E0B1
S214400530002140F23A50574B984700BB534B1B683C
S2144005400222DA7300214FF48850524B9847002815
S2144005503FF465AF41F6EF354FF000084D4E504F33
S214400560414641F20110B04700283FF458AFB84723
S21440057010F0010F00F0A480013DF1D14FE7484B49
S214400580984710F0804F05D0404B1A68D37B43F015
S2144005900803D373002141F23B103E4B9847002896
S2144005A03FF43DAF394B1B68DB7B13F0010F3FF444
S2144005B053AF3C4B984700283FF431AF334B1A6853
S2144005C0537D03F00700384951F820004FF47A7104
S2144005D001FB00F1C3F3C303344850F8233003FB58
S2144005E001F31360937C9B0940F02B81917E507EF3
S2144005F0137E9B0243EA800343EAA113107FD17E19
S214400600490041EAE011C3F30B03013301F007014F
S21440061002318B40D17D01F00F018B409B0A536025
S2144006209189090441F237101A4B984700283FF445
S214400630F6AE01230093082200211D481D4DA84711
S21440064000283FF4ECAE012104A81B4B9847002835
S2144006503FF4E5AE194B984700283FF4E0AE9DF8CE
S214400660103003F00F03012B00F0FD80002B00F04C
S214400670F580022B00F0FC80044B1B6810221A7495
S214400680EAE600BFE10140009D0340008C0A0020DE
S214400690450F40000511400015034000B5014000DD
S2144006A01D1140004D0340004870400064704000FB
S2144006B0331108007D0F40009D1140001912400084
S2144006C0002140F23A50AD4B984700283FF4A7AE81
S2144006D0AB4B984700F0C040B0F1804F18D0002197
S2144006E041F23B10A54B984700283FF498AEA54BE7
S2144006F0984700283FF493AEA34B1A68937CC3F305
S2144007008303013B032B0AD8DFE803F075787B7E32
S2144007109D4B1A68D37B43F00803D373DFE712235D
S2144007201374537DC3F3C30003F00703974951F88E
S21440073023104FF47A7303FB01F3954951F82010C8
S21440074003FB01F31360917E507E137E9B0243EAC7
S214400750800343EAA113C3F30B0340F6FF718B42B9
S2144007600FD0107FD17E490041EAE011013301F0FD
S214400770070102318B40D17D01F00F018B409B0A6F
S2144007805360137C3F2B4BD90021009101234FF43B
S21440079000728048804DA84700283FF440AE0025B0
S2144007A07E4E03A8B04700283FF439AE0135ADB2BF
S2144007B0322DF6D1744B1B689A7E597E1B7E9B0267
S2144007C043EA810343EAA213C3F30B0340F6FF72E6
S2144007D093420ED1714E04A8B04700283FF41FAE96
S2144007E00135ADB2352DF6D9674B1A68049B5B08C8
S2144007F053606A4E12E01423137492E72223137454
S2144008008FE7302313748CE74023137489E704A8DA
S214400810B04700283FF403AE0135ADB27F2DF6D980
S2144008204FF4007141F21010544B984700283FF4A3
S214400830F6AD5B4B984700283FF4F1AD594B9847CF
S21440084025E6D17E907E537E1B0443EA00230B436D
S214400850C3F3150301335B025360E1E64A4B1B6862
S21440086010221A74F8E5484B1B681A221A74F3E5EE
S2144008709DF81230DB09444B1B6814BF30222022FF
S2144008801A74E9E509250027474EA5F1090303AA8E
S214400890134400933B462A4639463846B04701350E
S2144008A00D2DF2D19DF80D309DF80C9009EB0329E3
S2144008B09DF80E3009EB03499DF80F3009EB0369AC
S2144008C04E464FF00008384F0BE09DF81130002B95
S2144008D03FF4A5AD02331E4409F580739E423FF6B1
S2144008E09EAD002504AB2B44009343467219414607
S2144008F04046B8470135032DF4D19DF81030FF2B04
S2144009003FF48DAD222BE0D19DF81230002BDCD188
S21440091004AD06F106094FF00008234F0095434604
S214400920324641464046B847013601354E45F5D138
S2144009309DF81530322B28BF3223134A1268C3F372
S214400940C30003F00703114951F823104FF47A739C
S21440095003FB01F3154951F8201003FB01F3136024
S21440096081E54FF4007141F21010044B984700287F
S2144009707FF481AD53E5002761E500BF05114000D7
S2144009801D1140004D0340008C0A00204870400076
S21440099008704000081108007D0F400029114000F3
S2144009A015034000B5014000DD0240006470400081
S2144009B008B5054B984708B1002008BD034B98473B
S2144009C0034B1B68D87B08BDE10140009D034000F7
S2144009D08C0A002008B5054B984708B1002008BD92
S2144009E0034B9847034B1B68586808BDE10140001D
S2144009F09D0340008C0A00200020704770B582B0EE
S214400A000E461546154B9847044610B1204602B090
S214400A1070BD134B9847C8B1124B1348012D98BF71
S214400A201846124B1B68DB7B13F0080F08BF760294
S214400A30012300932B464FF4007231460C4EB047CC
S214400A4040B10C4B1D800C4B1D80DFE70B4B98478D
S214400A500524DBE7094B98470524D7E7E10140002A
S214400A601503400011110800121110008C0A0020D6
S214400A707D0F4000900A0020920A00209D0340000F
S214400A8010B50C46064B984720B90022054B1A80F5
S214400A90052010BD034A13881C1B1480002010BD7F
S214400AA09D114000900A002010B50446134B98470D
S214400AB008B9052010BD84B10022114B1A80114B95
S214400AC01B88012B0FD0002143F20C100E4B984789
S214400AD068B10E4B9847002010BD094B1B88002B71
S214400AE0EDD0002010BD094B9847002010BD0021D6
S214400AF043F20C10044B9847EBE700BF1912400036
S214400B00900A0020920A0020051140009D034000F4
S214400B1070B582B00E461546114B98470446C0B98C
S214400B20104B1148012D98BF1846104B1B68DB7BB5
S214400B3013F0080F08BF7602012300932B464FF4AC
S214400B40007231460A4EB04730B10A4B1D800A4B00
S214400B501D80204602B070BD084B98470524F8E734
S214400B60E101400018910800199110008C0A0020FD
S214400B707D0F4000900A0020920A00209D0340000E
S214400B8010B50C46064B984720B90022054B1A80F4
S214400B90052010BD034A13881C1B1480002010BD7E
S214400BA01D124000900A002010B50446094B984795
S214400BB008B9052010BD34B10022074B1A80074BF8
S214400BC09847002010BD044B1B88002BF7D0002010
S214400BD010BD00BF9D124000900A00209D034000BB
S214400BE010B504460F4B9847012818D018B1022874
S214400BF010D0012010BD0C4B1B5D0BB1022010BD68
S214400C0020460A4B984700F00300002814BF0020F7
S214400C10022010BD0022044B1A55022010BD0320AE
S214400C2010BD00BFE5034000980A0020B10940000F
S214400C3008B50020014B984708BD00BFE10B4000B7
S214400C4038B504460D46044B9847400001382860A6
S214400C502046024B984738BDD5094000E10B40007E
S214400C6008B501460020014B984708BD410C40009E
S214400C7008B50020014B984708BD00BFF909400061
S214400C8010B5144601220A4B984720B102280CBFE3
S214400C900220012010BD01212046064B984708B18E
S214400CA0012010BD044B9847003018BF012010BDEE
S214400CB0FD094000810A4000A90A400008B50A46DE
S214400CC001460020014B984708BD00BF810C4000FC
S214400CD000B583B002A9FF2301F8013D01220A486E
S214400CE00A4B98470A4B1B88012B0CBFFE23FC235C
S214400CF08DF8063001220DF106010348034B984754
S214400D0003B05DF804FB00BF00840040AD14400013
S214400D10A20A002070B582B002ACFF2304F8013D61
S214400D200F4E0122214630460E4DA847012221464D
S214400D303046A847012221463046A8470A4C9DF82F
S214400D400730FF2B08D001220DF107013046A84797
S214400D50013CF4D1002000E0012002B070BD00BF8D
S214400D6000840040E3144000400D0300164B1A88F0
S214400D70012A27D0154B1988154B1B68B3FBF1F396
S214400D809A4202D901231846704770B582B002AC29
S214400D90FF2304F8013D0F4E0122214630460E4DFA
S214400DA0A847FD238DF80730012221463046A84744
S214400DB00A4B9847034610B90521094A1170184650
S214400DC002B070BD0123DEE7A20A00209A0A002086
S214400DD0A80A002000840040AD144000150D4000D5
S214400DE0A00A0020F0B583B002AD002305F8013D0F
S214400DF0104C114F114E012229463846B0479DF8F7
S214400E00073013F0F00F08D0FE2B10D0013CF2D183
S214400E1004220B4B1A70002007E013F0070F14BF94
S214400E2007220B22064B1A70002003B0F0BD0120AB
S214400E30FBE700BF20A1070000840040E314400009
S214400E40A00A002010B582B002A94FF6FF7321F821
S214400E50043D124C02222046114B984701220DF1C8
S214400E60070120460F4B98479DF8073003F01102C4
S214400E70012A05D001220C4B1A70002002B010BD8A
S214400E8003F01E03042B07D00A2B0CBF08220A22AD
S214400E90054B1A700020F1E70120EFE70084004080
S214400EA0AD144000E3144000A00A00200022084B86
S214400EB01A70084B1B6913F4803F00D0704710B57A
S214400EC0044C2046044B98470123236010BD00BFC6
S214400ED0A00A0020008400407513400070B582B020
S214400EE00022094B1A70094C04EB8004084D00920E
S214400EF00B4621462846074EB04721462846064B15
S214400F00984702B070BD00BFA00A00209C0A00208F
S214400F1000840040DD1340005D14400008B5002208
S214400F20044B1A70044901EB80010448044B98476F
S214400F3008BD00BFA00A00209C0A00200084004094
S214400F408D144000F0B583B002ADFF2305F8013D97
S214400F500022074B1A700A24064F074E01222946E4
S214400F603846B047631E13F0FF04F7D103B0F0BD18
S214400F70A00A002000840040AD1440002DE9F04354
S214400F8085B0044691469846FF238DF80F300023DF
S214400F90534A137000F03F0242F040028DF808209A
S214400FA00A0E8DF809200A0C8DF80A200A0A8DF8D8
S214400FB00B208DF80C1002AF4FF0080C0DF10D0E03
S214400FC001E0774512D017F8011B62465B00DBB2A2
S214400FD083EA010010F0800F18BF83F00903490030
S214400FE0C9B2013A12F0FF02F0D1EAE75B0043F0E3
S214400FF001038DF80D303B4F01220DF10F013846AD
S214401000394DA847062202A93846A84704A9FF2317
S21440101001F8093D01223846344B98470727314EA0
S214401020324D01220DF107013046A8479DF80730A2
S21440103013F0800F0BD07B1E13F0FF07F1D1022276
S214401040274B1A700023184605B0BDE8F083284A9F
S214401050136013F0080F19D113F0040F1BD133F0AF
S21440106001031DD114F4005F1FD114F4007F25D175
S21440107014F4806F2AD11F4BA3F800901E4BA3F8A0
S214401080008000221D4B1A600123DCE70622144B29
S2144010901A700023D7E70922114B1A700023D2E7B3
S2144010A001220F4B1A700023CDE7154B9847034695
S2144010B00028DAD103210A4A1170C4E70C490023FC
S2144010C00B6001220748094B9847D1E7084C042299
S2144010D021460448054B984723681BBA2360CAE755
S2144010E0A00A002000840040AD144000E3144000F5
S2144010F0A40A00209A0A0020A20A0020A80A00207B
S214401100150D400010B582B0002200921346024CE6
S214401110A04702B010BD00BF7D0F4000014B1868CD
S214401120704700BFA40A002010B582B004460022D3
S214401130144B1A70144B1A88144B1968B1FBF2F30F
S21440114002FB13131BB9124B9847034680B1042287
S21440115021461048104B98470C4A136804331360D6
S214401160094A1188B3FBF1F201FB12331BB101238C
S214401170184602B010BD022201A90648064B984701
S2144011800123F5E7A00A00209A0A0020A80A0020BA
S214401190E50D400000840040E31440002DE9F04F88
S2144011A083B00022164B1A7039B34C1EA4B2814647
S2144011B01546DFF85CB0DFF85C80124FD8478246B1
S2144011C0B8B1B8F8002009EB050138460E4EB047D6
S2144011D0B8F800100D440D4A13680B441360022201
S2144011E001A93846B047013CA4B24FF6FF739C4273
S2144011F0E4D1504603B0BDE8F08F4FF0010AF8E75F
S214401200A00A002000840040E3144000A80A002002
S214401210E50D40009A0A0020012070472DE9F8436A
S21440122081460025154B1D70DFF86C80144E154F17
S21440123000E021464C1EA4B2D9B1C047328809EB23
S21440124005013846104B984731880D440F4A1368BD
S2144012500B4413600E4B9847034658B1002CE8D019
S2144012600C4B984703460028E3D10521034A1170EA
S21440127000E001231846BDE8F88300BFA00A00201E
S2144012809A0A002000840040AD144000A80A0020BE
S214401290450E4000150D4000D10C400008B5064BE9
S2144012A0984728B903460521044A1170184608BDD8
S2144012B0034B98470346F9E7150D4000A00A002067
S2144012C06D0D400010B5A2B01848194B9847002045
S2144012D0184B9847184CA0470028FCD0174B984707
S2144012E0174A184B9A62184CA0470028FCD000209A
S2144012F0164B9847164B984716480D4B9847164B33
S2144013001A68164B1344164A934201D922B010BDB0
S2144013102023009302AB0F220E211248124CA04706
S214401320BDF848101148124B9847EFE7000E2707C4
S214401330551F40006519400089194000A919400012
S214401340013F4D0E00040E40B51940000119400003
S2144013506D1E400000002707BC000020C0D3BDF92A
S21440136080C3C901000A0E400D00002010140E4034
S214401370631C400038B50446134D2846134B984727
S21440138002212846124B984780232360636843F027
S21440139001036360636843F010036360636823F08F
S2144013A080036360002120460A4B9847636823F019
S2144013B002036360636823F00403636000212046F1
S2144013C0054B984738BD00BF00800040711740006D
S2144013D0FD184000491B40005F1B40002DE9F041CE
S2144013E004460D46164615491846154B9847074677
S2144013F000231A4629682046DFF85C80C04708224A
S214401400296820460F4B9847FAB2296820460E4B6B
S21440141098470822296820460C4B98477208296846
S21440142020460B4B984786F0010202F001022968DD
S2144014302046084B9847BDE8F08100BF00002707CC
S214401440071C4000F31B40001D1C4000AD1B400025
S214401450711B40008F1B4000451C400008B5436888
S21440146013F0040F06D009680F2900D908BD064BB3
S214401470984708BD09680329F8D8012303FA01F103
S214401480C943014B9847F1E7491B400010B5044655
S214401490236913F4007FFBD00F212046024B984768
S2144014A04FF08073236010BD491B40001AB110B442
S2144014B00C46114406E00020704714F8013BC36018
S2144014C0A1420CD043F69923026912F0020FF4D1E0
S2144014D0013BF9D16FF002005DF8044B70470020E5
S2144014E0FAE73AB170B415460C460D44FF2640F272
S2144014F0012112E000207047C66043F69923026936
S21440150031EA020204D0013BF9D16FF002000EE04E
S214401510836804F8013BA5420BD043F69923026941
S21440152012F0020FE8D1013BF9D16FF0020070BC17
S21440153070470020FBE7000008B10120704708B55F
S214401540014B984708BD00BF310C400008B1012050
S214401550704708B50846014B984708BD610C4000E7
S214401560B0FA80F04009704708B10120704708B5CE
S214401570014B984708BD00BF710C400008B10120E0
S214401580704708B508461146014B984708BD00BF4E
S214401590BD0C40002DE9F04180B90C469046002A2B
S2144015A00FDD8F18084E094D306821462B68984746
S2144015B00134BC42F8D14046BDE8F0814FF0FF38D8
S2144015C0F9E78046F7E700BF1C0B0020140B00200D
S2144015D00138022815D82DE9F0410E4614469AB136
S2144015E00D46DFF838800C4FD8F8000015F8011B80
S2144015F03B68984700280ADBA81B013CF4D1BDE8AD
S214401600F0814FF0FF3070471046BDE8F0814FF054
S214401610FF30BDE8F08100BF180B00201C0B0020F7
S21440162038B54FF400444E4B5C600B204D4DA847F8
S2144016300C20A8474C4B40221A61C3F8A0201A63DE
S21440164004225A61C3F8A0205A66C3F890205A650F
S2144016505A62C3F880201A6F22F004021A675A6F43
S21440166022F004025A6702221A631A61C3F8A020C5
S2144016703E494FF400520A630A61C1F8A0200C6349
S2144016800C61C1F8A0404FF0C0511966C3F89010E5
S21440169059655962C3F88010186F08431867586F29
S2144016A020F0C050586759604FF480511966C3F80F
S2144016B0901059655962C3F88010186F20F4805016
S2144016C01867586F20F48050586759601A66C3F8F8
S2144016D090205A655A62C3F88020196F21F4005151
S2144016E01967596F21F4005159675A604FF4804288
S2144016F01A66C3F890205A655A62C3F88020196F5C
S21440170021F480411967596F21F4804159675A6026
S2144017104FF000525A61C3F8A0205A66C3F8902092
S2144017205A655A62C3F880201A6F22F000521A6730
S2144017305A6F22F000525A674FF400621A66C3F896
S21440174090205A655A62C3F88020196F21F40061D0
S2144017501967596F21F4006159675A6038BD00BF58
S21440176050140E40C5194000000E0E4000100E40AA
S214401770544B1B78FF2B34D000B583B0EFF3108367
S214401780B3FA83F35B09019372B6BFF35F8F00220F
S2144017904D4B1A7001994B4A13780133137029B197
S2144017A00122494B1A70BFF35F8F62B6474A904298
S2144017B018D0474A904223D0464A90422ED0464AB6
S2144017C0904239D0454A904244D0454A90424FD004
S2144017D0444A90425AD0444A904265D003B05DF89D
S2144017E004FBFEE70720414B98470720404B9847AD
S2144017F0002107203F4B984707203F4B9847EDE78F
S21440180016203A4B98470720394B98470021072027
S214401810384B98470720384B9847DFE71520334B1F
S21440182098470720324B984700210720314B98476E
S2144018300720314B9847D1E714202C4B9847072078
S2144018402B4B9847002107202A4B984707202A4BC6
S2144018509847C3E71320254B98470620244B9847C4
S21440186000210620234B98470620234B9847B5E790
S2144018700E201E4B984706201D4B984700210620F9
S2144018801C4B984706201C4B9847A7E70920174B48
S21440189098470620164B984700210620154B984738
S2144018A00620154B984799E70820104B9847062086
S2144018B00F4B9847002106200E4B984706200E4BAC
S2144018C098478BE70C0B0020B800002000400340F0
S2144018D0000004400080004000C0014000800140FD
S2144018E0004002400000024000C00040C5194000D1
S2144018F0691A4000191A4000551A400001607047A6
S214401900174A136B23F0700318431063936E13F05B
S214401910080F0AD14FF4006311498A6E12F0080F7F
S21440192003D1013BF9D1012070470D4A136B23F0D8
S214401930030343F002031363936E13F0080F0AD1B8
S2144019404FF4006306498A6E12F0080F05D1013B3A
S214401950F9D101207047002070470020704700BF33
S21440196000040E40012803D0054A064B1A60704713
S214401970044A936843F0254343F480139360F3E7A7
S214401980080000A510140E40054B5B6913F0800F4D
S2144019901DBF044B986EC0F3C0100020704700BFB8
S2144019A010140E4000040E400022014B9A6270470D
S2144019B000040E40024B986E00F00200704700BFD5
S2144019C000040E4032281ED81F280CD8114B9A69A6
S2144019D001238340934318D0012303FA00F00D4BB4
S2144019E018610020704720380A4BD3F8082101239D
S2144019F0834093430BD0012303FA00F0054BC3F812
S214401A0000010020704701207047002070470020EA
S214401A10704700BF00040E4041F004010C4B00F13B
S214401A20100243F822109A6E4FF4807303FA00F0C7
S214401A30024209D14FF4006305498A6E024205D13D
S214401A40013BFAD1012070470020704700207047C4
S214401A5000040E404FF4807303FA00F0014B186008
S214401A60704700BF00040E404FF4807303FA00F046
S214401A70014B5860704700BF00040E4030B4856884
S214401A808468A54203D085688468AC42FBD161B1C6
S214401A90C4F3015000EB8005C4F3034000EB45005F
S214401AA014F4800F18BF0C30086042B1C4F3023102
S214401AB001EB8101C4F3032000EB4101116043B107
S214401AC0C4F3021202EB820204F00F0404EB420459
S214401AD01C6030BC7047F0B4049EC568C468A5421C
S214401AE003D0C568C468AC42FBD199B1C4F3033097
S214401AF000EB8000C4F3032707EB4007C4F3021053
S214401B0000EB800504F00F0000EB4500642505FB64
S214401B100070086042B1C4F3005081000844C4F32A
S214401B20034101EB4001116043B1C4F3017202EB83
S214401B308202C4F3036101EB42021A6016B1C4F399
S214401B4042543460F0BC7047436823F440334360EB
S214401B504368090401F440311943416070474368C3
S214401B6023F07F434360436843EA01614160704726
S214401B7032B900EB8100036B23F001030363704727
S214401B8000EB8100036B43F001030363704732B9F7
S214401B9000EB8100036B23F002030363704700EB06
S214401BA08100036B43F0020303637047042A03D0AB
S214401BB06AB1082A16D0704700EB8100036B23F009
S214401BC008030363036B43F004030363704700EBAF
S214401BD08100036B23F008030363036B23F00403C5
S214401BE00363704700EB8100036B43F00803036315
S214401BF0E1E700EB81010B6B23F0F0030B630B6B0B
S214401C001A430A637047431E1944B1FBF0F0431E63
S214401C10FE2B94BF00B24FF0FF3070477AB110B43D
S214401C20144600EB81010B6B23F47F430B630A6B76
S214401C3042EA04220A6300205DF8044B70474FF0E6
S214401C40FF30704710B400EB8101086B80B2086328
S214401C500C6B44EA036343EA02430B635DF8044BB0
S214401C607047C369490201F4F05141F0B44141F470
S214401C70807123F4F0531943C161704710B40B01CF
S214401C80934214D9C9004B0803EBC202B2FBF1F2EF
S214401C90D3085C1E4FF6FE718C4201D9012017E036
S214401CA0416841F4002141600CE0012010E05908F1
S214401CB001EBC202B2FBF3F2D3085C1E4FF6FE7194
S214401CC08C42F2D8120402F4E0221A430262002048
S214401CD05DF8044B70470000084BC0F8E430002322
S214401CE043604362836288230360242303604FF487
S214401CF0807303604FF400230360704700415355E0
S214401D0070B505460C4616460F4B984700220F4BBB
S214401D101A60A4B13246216828460D4B98470246C1
S214401D2078B96368A1680B4321690B43E1680B43AC
S214401D3006490B6069680B436B60104670BD012214
S214401D40FBE70122F9E700BFD91C4000AC0A00209F
S214401D507D1C40004023036070471023036070479B
S214401D60436913F0020F1DBFC1F30801C161002093
S214401D7001207047436913F0010F05D08369C3F310
S214401D8008030B600020704701207047FEE7000004
S214401D9000B583B02A4B2B4A9A4210D02A4B284A89
S214401DA09A420CD2013B9B1A23F00303043313449C
S214401DB0244951F8040B42F8040B9A42F9D1234BBC
S214401DC0234A9A420AD2013B9B1A23F00303043368
S214401DD01344002142F8041B9342FBD11D4A22F0D3
S214401DE07F011D4B9960EFF31083B3FA83F35B09D1
S214401DF0019372B6BFF35F8F0021184B197001989C
S214401E0017490B6843F470030B60BFF34F8FBFF363
S214401E106F8F28B10121114B1970BFF35F8F62B6E7
S214401E2002F16042B2F5203F04D20B4A936843F079
S214401E30005393600B4B98470B4B9847FEE700BF09
S214401E4000000020BC8D4000700A0020480B002097
S214401E50700A00200000400000ED00E0B8000020BE
S214401E6088ED00E081404000213C4000314B1B6B38
S214401E7003F00303012B1DD083B1022B36D02D4B2C
S214401E801B6B03F07003702B4BD02A4B1A6B2A49FE
S214401E90C2F302120B68D3400B607047274B5B6956
S214401EA013F0800F14BF4FF400424FF4FA42224B17
S214401EB01A60E4E71F4B1B6A13F0807F03D0204A6A
S214401EC01D4B1A60DBE71F4A1B4B1A60194B1B6AF7
S214401ED003F07003102B05D0202BD0D11A4A164B96
S214401EE01A60CCE7194A144B1A60C8E7134B5B6973
S214401EF013F0800F14BF4FF400424FF4FA420E4BDB
S214401F001A600C4B1B6B03F00303022BB7D1094B33
S214401F109A6A0949C2F30C420B6802FB03330B6012
S214401F20ADE7054A13680A49A1FB03135B08136033
S214401F30704700BF00040E40BC00002010140E4046
S214401F40001BB70000127A0000366E010024F40031
S214401F50ABAAAAAA124B984211D9124B984213D94F
S214401F60114B984214D9114B984215D9104B9842B0
S214401F7094BF4FF004220F4A0F4B1A6070474FF041
S214401F8080620D4B1A6070470C4A0B4B1A607047C4
S214401F900B4A094B1A6070470A4A074B1A6070474B
S214401FA0FF2C3101FF596202FF869303FFB3C4043E
S214401FB0FFE0F50500050004000A0E40000100049D
S214401FC000020004000300040A4B1B6853B1094B8F
S214401FD01B681A180849914208DB1046054A1060EB
S214401FE018467047054A034B1A60F0E74FF0FF303B
S214401FF0704700BFB00A0020FC7F0220483B00200C
S2144020004FF0FF3070474FF400534B60002070474E
S2144020100120704700207047012801D901207047F1
S21440202010B504460A4B9847032806D12046084B6D
S2144020309847032801D1012010BD38B92046054BEA
S2144020409847002814BF0420002010BD012010BD72
S214402050391540006915400008B5054B984720B132
S21440206002280CBF0320012008BD002008BD00BF89
S214402070391540002DE9F04F83B080460D46144692
S2144020801F46154B984718B9012003B0BDE8F08F9E
S214402090064601A94046114B9847B14606FB074203
S2144020A0019B03FB06639A4201D90420EDE7BA463A
S2144020B077B176020027DFF828B02A462146404608
S2144020C0D84738B901374C4435445745F5D1DCE755
S2144020D00020DAE70120D8E7611540004D154000A2
S2144020E07D1540002DE9F04182B0064688461746E9
S2144020F01D46174B984718B9012002B0BDE8F0813D
S214402100044601A93046134B984704FB0573019AD1
S21440211002FB0444A34201D90420EEE7ADB22A46AE
S214402120394630460C4B984720B102280CBF022057
S2144021300120E2E729464046084B984708B101206F
S214402140DBE7074B9847003018BF0120D5E700BFB4
S214402150611540004D154000110B4000810B4000BA
S214402160A90B400010B582B01446032927D8DFE8F3
S21440217001F01F070F0201231360002002B010BDBC
S21440218001A9114B9847019B013323600020F5E7D6
S2144021900E4B9847082814D84FF48B7323FA00F058
S2144021A010F0010F01D10120E8E700202070E5E79C
S2144021B0074B984700280CBF00200320DEE704208A
S2144021C0DCE70120DAE700BF4D154000611540000E
S2144021D03915400030B58BB0114C07AB08AA09A999
S2144021E02046104DA84703AB009304AB05AA06A9AA
S2144021F020460D4CA047049B1B04059843EA4053D9
S214402200099843EAC023089843EA4013079843EAEC
S21440221050030698A0F2BC7043EA40600BB030BD55
S21440222060140E407D1A4000D71A40003AB101387B
S2144022308A1811F8013B00F8013F9142F9D17047E6
S21440224022B1821800F8011B8242FBD17047023946
S2144022508369023B99423DBF8378806A01FB030055
S21440226000207047024600F10B010020C30143EAFC
S214402270500312F8010B50FA83F3D8B28A42F5D1D4
S2144022807047000098B108B502780AB9092008BD21
S214402290C2888A4201D0092008BD4078054B98473D
S2144022A000F00100002814BF0320002008BD0920CC
S2144022B0704700BF5920400038B5044601230A46FF
S2144022C000F1300140781D4DA84708B1032038BDC5
S2144022D094F82F2294F82E3243EA02231BB2184A6F
S2144022E0934201D0022038BD94F8692094F86830B3
S2144022F01B0443EA026394F86620134394F867206D
S21440230043EA022323F07F430E4A934213D094F8C5
S214402310853094F88400000440EA036094F88230E4
S214402320184394F8833040EA032020F07F40801A18
S21440233018BF012038BD002038BD00BF75204000C2
S21440234055AAFFFF46415400F8B503681C78303C58
S214402350092C0AD85D783A2D01D0002406E00233D5
S2144023600360072C02D90B20F8BD0024AD4B53F870
S21440237024500D60002D00F03D8116462B787BB131
S2144023806878A94B984710F0010F09D1002E00F04D
S214402390338100F0040000280CBF00200A20F8BD5E
S2144023A000232B70E0B26870A04B984710F0010FE6
S2144023B001D00320F8BD26B110F0040F01D00A204A
S2144023C0F8BD002128469A4B9847012806D000249D
S2144023D0032800F01381C8B10D20F8BD95F8F231FE
S2144023E00BB90D20F8BD95F8F93195F8F84124045D
S2144023F044EA036495F8F6311C4395F8F73144EA0D
S2144024000324214628468A4B9847E1E795F83C2026
S21440241095F83B3043EA02231BB2B3F5007F01D068
S2144024200D20F8BD95F8473095F8462052EA03222D
S2144024300DD195F8573095F85620120442EA0362BB
S21440244095F854301A4395F8553042EA0322EA612B
S21440245095F840E085F803E00EF1FF33DBB2012B40
S21440246001D90D20F8BD95F83D60AE70002E00F005
S214402470C780731E334201D00D20F8BD95F8423018
S21440248095F8411041EA0321298111F00F0F40F0E1
S214402490B98095F8440095F8433053EA00230DD1AF
S2144024A095F8530095F852301B0443EA006395F8BC
S2144024B05000034395F8510043EA002395F83F0047
S2144024C095F83E7057EA002700F09E8002FB0EFE0D
S2144024D007EB111070448342C0F098801B1AB3FB80
S2144024E0F6F3002B00F0948040F6F576B3428CBFAE
S2144024F0022601264FF6F57C634500F2A3800233A0
S214402500AB612044A8623C442C62002900F08880DD
S21440251074446C62022E0FBF5B0003EB430103F072
S214402520010303EB510303F2FF13B2EB532F75D3B2
S2144025304FF0FF332B610023EB604AE095F82F22E3
S21440254095F82E3243EA02231BB23A4A93424BD1C5
S21440255095F8332095F832301B0443EA026395F829
S2144025603020134395F8312043EA0223324A9342FF
S2144025703CD195F8172295F816321B0443EA0263BD
S21440258095F81422134395F8152243EA02232B4A62
S21440259093422DD195F81F2295F81E321B0443EA2C
S2144025A0026395F81C22134395F81D2243EA022342
S2144025B0EB6095F81B2295F81A321B0443EA026337
S2144025C095F81822134395F8192243EA02232B6103
S2144025D003262E701A4A138801339BB21380EB8071
S2144025E00020E8622871F8BD0326F2E70326F0E7EC
S2144025F00326EEE70C20F8BD0020F8BD0120F8BD0C
S2144026000D20F8BD0D20F8BD0D20F8BD0D20F8BDFD
S2144026100D20F8BD0D20F8BD0D20F8BD0D20F8BDED
S2144026200D20F8BDB40A0020592040001920400073
S214402630B922400055AAFFFF525261417272416171
S214402640D40A00200233AB612044A86227442F629C
S2144026500029E1D195F85F0095F85E10090441EA3B
S214402660006195F85C00014395F85D0041EA002161
S21440267069629B0003F2FF13B2EB532FCAD34FF0AD
S214402680FF332B610023EB606B7195F8613095F852
S214402690602042EA032222446A61012305F13001A8
S2144026A06878034CA04700283FF448AF032690E7DD
S2144026B0752040002DE9F047C76A8F4235D00E4658
S2144026C0044603791BB92EBB0020BDE8F08700F115
S2144026D0300801233A4641464078184DA84738BB53
S2144026E000232371236AE26913449F42EBD2E578C4
S2144026F0012DE8D94FF0010ADFF84090E3691F4406
S21440270053463A4641466078C847013DEDB2012DF2
S214402710F4D1D8E70123324604F130016078084D01
S214402720A84740B9E662BDE8F0870020BDE8F087DC
S2144027300120BDE8F0870120BDE8F087E520400095
S2144027407520400001296AD9F8B58369994268D254
S2144027500C4606460378022B2FD0032B41D0012B84
S21440276002D04FF0FF30F8BD01EB5107016A01EB94
S21440277057212D4B984710B14FF0FF30F8BDC7F3A7
S2144027800803334493F830500137316A01EB572140
S2144027903046254B984710B14FF0FF30F8BDC7F391
S2144027A00807F01990F8300045EA002014F0010FB1
S2144027B014BF0009C0F30B00F8BD016A01EB1421F9
S2144027C0194B984710B14FF0FF30F8BD600000F449
S2144027D0FF70304490F8313090F8300040EA0320E3
S2144027E0F8BD016A01EBD4110F4B984710B14FF07A
S2144027F0FF30F8BDA00000F4FE7000F13002324415
S214402800D17893781B0443EA0163304490F8300053
S2144028101843537840EA032020F07040F8BD01206A
S21440282070470120F8BD00BFB5264000F8B5054604
S2144028300C46C180816801293DD003689A6991425F
S21440284001D30220F8BD61B91A78032A06D00022C7
S214402850EA601A89A24221D80220F8BD596A0029A6
S214402860F5D09E783601B44210D3174F2868B84743
S2144028700146B0F1FF3F20D0012820D92B689B6944
S21440288098421ED2A41BA4B2A642EFD9E96028689B
S2144028900E4B984700EB1410286103E05B6A03EB8D
S2144028A014132B612B68303304F00F0403EB4414ED
S2144028B06C610020F8BD0220F8BD0120F8BD022062
S2144028C0F8BD0220F8BD00BF452740004F2240001B
S2144028D02DE9F041012940F28F808369994201D366
S2144028E002278AE015460C4606460378022B4ED051
S2144028F0032B5FD0012B03D00227012333717CE0EA
S21440290001EB5108016A01EB58213D4B98470746B9
S2144029100028F2D1C8F3080314F0010F1CD033444A
S21440292093F8302002F00F0242EA051283F8302076
S21440293008F1010801233371316A01EB5821304612
S2144029402F4B9847002853D1C8F30808C5F3071201
S214402950B04488F83020D0E7334483F8305008F14C
S214402960010801233371316A01EB58213046244B6C
S214402970984700283ED1C8F3080806EB080393F8AA
S214402980303023F00F03C5F303221A43E0E7016A11
S21440299001EB14211A4B984707460028ADD1630037
S2144029A003F4FF73334483F83050C5F3072283F8AB
S2144029B03120A2E7016A01EBD411114B9847074634
S2144029C000289AD1A10001F4FE7101F1300333448E
S2144029D0DA781206314402F070422A4381F83020F9
S2144029E0C2F307215970110C9970120EDA7084E701
S2144029F0074682E7074680E702273846BDE8F0816B
S214402A00B52640002DE9F0410546884641B9C668DE
S214402A1086B183699E4228BF01263446274F17E079
S214402A20264B9847034601283ED9AA69904240D390
S214402A304646F2E70126F0E721462846B8470346D1
S214402A4070B1B0F1FF3F34D0012832D0B4422FD01D
S214402A500134AB699C42EFD3012E27D90224EBE721
S214402A606FF0704221462846154B98470346A8B952
S214402A70B8F1000F0AD1EC602B69B3F1FF3F1BD0D1
S214402A80013B2B6101236B71234612E022464146EF
S214402A9028460B4B984703460028ECD0012B0CBF2A
S214402AA04FF0FF33012304E0012302E0002300E05F
S214402AB000231846BDE8F0812346FAE74527400044
S214402AC0D128400001292ED92DE9F84304460E4668
S214402AD08369994203D302221046BDE8F883164F15
S214402AE04FF00009DFF8548003E02E46A369AB425E
S214402AF0F2D931462046B8470546B8B1012817D026
S214402B00B0F1FF3F16D04A4631462046C0470246FF
S214402B100028E1D12369B3F1FF3FE6D001332361BA
S214402B2001236371E1E70222104670470022D3E793
S214402B300222D1E70122CFE745274000D1284000B6
S214402B402DE9F84FC4880134A4B214B90420BDE876
S214402B50F88F036913B90420BDE8F88F0E46054682
S214402B6014F00F0710D101330361C16831B903680F
S214402B701B89A34208D80420BDE8F88F00688378F4
S214402B80013B13EA141308D0EC802B68303303EB78
S214402B9047136B610020BDE8F88F324B984780465C
S214402BA001284DD9B0F1FF3F4DD02868836998453C
S214402BB03ED316B90420BDE8F88FE9682A4B9847FB
S214402BC0804610B90720BDE8F88F01283ED0B0F106
S214402BD0FF3F3ED000212868244B984700283BD131
S214402BE028684FF4007200213030214B98472E68F9
S214402BF0414630461F4B9847F06200264FF0010B87
S214402C00B246DFF868902B689978F2B291420BD9B9
S214402C1083F804B051462868C8470136F8B92A6890
S214402C20D36A0133D362EEE71646DA6A961BDE6253
S214402C30C5F80C80414628680E4B98472861A3E7A4
S214402C400220BDE8F88F0120BDE8F88F0220BDE8DD
S214402C50F88F0120BDE8F88F0120BDE8F88F0120ED
S214402C60BDE8F88F45274000052A4000B5264000BD
S214402C70412240004F2240002DE9F04F85B00546E6
S214402C800021624B9847804608BB4FF0FF0BD94661
S214402C905F4FDA4695E00F2A1DD0B9F1000F04D1F8
S214402CA020465C4B9847824511D04FF6FF732B84E5
S214402CB0AB69DA7A12F0010F7AD104F10B0014F8FE
S214402CC0011B13F8012B91426CD1A042F7D140462C
S214402CD005B0BDE8F08FD5F81C80B8F1000F69D07C
S214402CE016F0400F0CD094F80DA006F0BF06EB8807
S214402CF02B8494F80DB0D34508D04FF0FF0959E027
S214402D00B14518BF4FF0FF0954D1F2E794F800A040
S214402D102AF0400A0AF1FF3A0AEB4A030AEB830319
S214402D20DFF8FC9009F10D0A01200396CDF804B0B7
S214402D301E4602950FE01846374B98478346FE2EB0
S214402D405BD8751C38F81600334B9847834558D1E6
S214402D502E46D14513D019F8012BA3185978A35CF9
S214402D6043EA01230028E6D14FF6FF729342F0D0A3
S214402D70DDF804B0029DDA464FF0FF091AE0DDF8B0
S214402D8004B03246039E029D237813F0400F04D0D1
S214402D9018B138F81230002BEDD1013E5FFA86F9B3
S214402DA0DA4607E04FF0FF0904E04FF0FF0901E084
S214402DB04FF0FF0900212846184B984780460028C8
S214402DC085D129692868B847804600287FF47FAFB8
S214402DD06C69267876B1E37A03F03F02E52EE4D0BC
S214402DE013F0080F3FF457AF0F2A3FF474AF4FF07D
S214402DF0FF09DFE74FF0040869E7DDF804B0029DFD
S214402E00B9E7DDF804B0029DB5E700BF2D284000C5
S214402E10B526400065224000FD394000412B400069
S214402E20A47040002DE9F04F89B004468569D0F87B
S214402E301CB00C22294605A8A84B98479DF81F3081
S214402E4013F0010F79D00023EB72E3610B2205A942
S214402E502846A24B984701273B464FF02008DFF80C
S214402E609C92DFF878A232E03B4630E0134602E020
S214402E70002300E013462B4405E0414603F8011BBF
S214402E80591B072907D8072AF7D808A9114411F86B
S214402E90141C0132F2E72046C847064600283ED1B9
S214402EA00137BFB2642F38D00B2205A92846D04739
S214402EB0052FD9D93B465946DA0342EA530331F83F
S214402EC0022B12FA83F39BB20A88002AF4D10DF142
S214402ED01306072203F00F0000F13001392988BF9E
S214402EE000F13701013A06F80119C3F30F13002B1E
S214402EF0F0D17E2108AB134403F8141C002AB5D049
S214402F002B78202BB4D02946002301339A42B1D0E7
S214402F1011F8010F2028F8D1ADE7072604E0642F0A
S214402F2000F09F80042803D0304609B0BDE8F08FFB
S214402F309DF81F30EB72C4F81CB09DF81F3013F09C
S214402F40020F14D0BBF800307BB1002301339BB294
S214402F503BF81320002AF9D11933614F87FB03272A
S214402F60DB17C3EBA707BFB202E00023F4E7012755
S214402F70002120465B4B984706460028D4D14FF0A8
S214402F80000A5546DFF86881D346DFF860910AE0CC
S214402F906B1C9BB29F4266D01D4601212046C84707
S214402FA006460028C0D121692068C047064600284A
S214402FB0BAD163691B78E52B00D023B9002DE7D141
S214402FC0B4F806A0E4E75D46E7E751462046454BA1
S214402FD0984706460028A7D1A069434B98470090DB
S214402FE00027019719E0714662E04FF6FF72934260
S214402FF002D039F811300BB94BF0400B80F800B0D6
S214403000236801221A7139462046384B98470646AF
S214403010002889D1013DADB23DB321692068344BCB
S2144030209847064600287FF47FAFD4F81C90606926
S2144030305FFA85FB9DF8003043730F23C372077316
S2144030408776C7760BF1FF3101EB410301EB830135
S214403050284A02F10D08019B4FF6FF764FF0FF0A13
S21440306029E0072660E7012BAFD821692068204B6E
S2144030709847064600287FF457AF6569202200210E
S21440308028461D4B98470B22A1692846134B984764
S214403090A369DB7A03F018032B73236801221A71A5
S2144030A042E792F800E000F80EA086448EF801A0B1
S2144030B00132424599D0B342F3D001F1010E39F8BE
S2144030C011301178435401444FEA132C81F801C063
S2144030D0002B88D171463346EAE700BF2D224000D8
S2144030E04FECC44E2D28400065224000412B400046
S2144030F0B5264000A470400041224000792C400094
S21440310070B5044600212D4B9847034650B92378A6
S214403110032B09D0002211466078294B9847031CA0
S21440312018BF0123184670BD6379002BF2D00026E5
S214403130E66204F130054FF4007231462846214BD2
S2144031409847552384F82E32AA2384F82F325223E8
S21440315084F8303084F83130612384F832304122AC
S21440316084F83320722184F8141284F8151284F8F7
S214403170162284F81732236984F81832C3F30722DC
S21440318084F819221A0C84F81A221B0E84F81B3273
S214403190E36884F81C32C3F3072284F81D221A0C15
S2144031A084F81E221B0E84F81F32012362692946CA
S2144031B06078054DA8476671ACE700BFB52640006D
S2144031C06521400041224000E52040002DE9F04FB7
S2144031D083B0824688460B782F2B0CD05C2B0AD0C7
S2144031E00023CAF8083098F800301F2B06D9DFF8BD
S2144031F0F49244460CE008F10108F1E700215046FD
S214403200B24B984703460022CAF814202EE11C46CB
S2144032102746234613F8010B2F28F8D05C2808BF12
S2144032201C46F5D0DAF81CB080B21F2840F22D813B
S2144032302F2800F02F815C2800F03581ABF1020684
S2144032400125A84612E073BB26F8022F6B1C14F823
S214403250010F1F2840F21B812F2800F01D815C289B
S21440326000F01A81B3F5807F1DD01D464146C84701
S2144032700246C0B17F28E7D8222800F0F6802A23ED
S214403280934998B29042DED011F8013F002BF8D116
S214403290DAE7013D00F0E98032F8023D202BF8D015
S2144032A02E2BF6D00DB90623E0E06F004FF0000855
S2144032B02BF815800B222021DAF81800854B98470A
S2144032C0ABF10201434600E0013331F8022F202AD9
S2144032D0FAD02E2AF8D00BB146F00306023F0BEB8D
S2144032E007023BF807102E2905D0013D03D032F8DF
S2144032F0021D2E29F9D1082200924FF00008CDF881
S214403300048005E0AF4200F0D18046F003063B461D
S2144033105F1C3BF8130050B32028F6D02E28F1D07F
S214403320009B984519D2AF4200F0C0807F286CD8E9
S2144033302B2879D02C23684A99B2814272D012F851
S214403340013F002BF8D1A0F141039BB2192B76D850
S214403350019B43F00203019369E0009B0B2B48D08E
S214403360AF4200F0A68046F0030640F2A280DAF8AC
S21440337018301A78E52A45D0009B082B6BD0019A66
S21440338002F00C030C2B6DD002F00302032A69D026
S21440339016F0020F0BD1019A02F0030BBBF1010F9E
S2144033A008BF46F01006042B08BF46F00806DAF8B9
S2144033B01830DE725046494B9847DAF81830DA7AB9
S2144033C00346002856D112F0040F4FD1DAF81420E5
S2144033D0D37A13F0100F56D0517D137D43EA012166
S2144033E0D07E937E43EA002343EA0143CAF808307E
S2144033F00EE746F00306DAF818301A78E52ABED10A
S2144034000B22009205221A70B6E70021C8470346F1
S214403410002858D0324A134413F8800C46F002066F
S21440342010B185E7002B8ED046F003065F20DAF811
S214403430183003F808003B4608F1010868E7A0F199
S21440344061039BB2192BF2D8019B43F00103019311
S214403450203880B2EBE7019B4FEA830B5FFA8BF391
S21440346001938CE746F0020692E70623184603B01F
S214403470BDE8F08F0428F9D102F00402002A14BFF8
S21440348003460523F2E70523F0E701230025FC1851
S214403490042603E001230025FC180026002DE4D076
S2144034A00BEB4502F8E601230025F5E7009B0B2BC6
S2144034B09FD0019B9B00DBB201932B460B220092D0
S2144034C04FF0080824E746F00206ADE72D284000F6
S2144034D0357140004122400041714000792C400047
S2144034E0B4704000BD394000072801D90B20704712
S2144034F0064B53F820300BB100221A7009B1002356
S2144035000B70024B43F8201000207047B40A00208E
S2144035102DE9F041ADF50E7D054601911646002396
S214403520036002F01F0702F01E0285A901A8584B4F
S214403530984782AB8B9302AB8C9340B103468A9CF0
S21440354016F01C0F17D1002B40F092800DE0019929
S21440355085A8504B98478A9C03460028F0D1002CFB
S21440356000F08B8016F01C0F16D1E37A13F0100F84
S2144035704FD004237CE0042B05D047F008078A9CF4
S214403580002B57D074E085A8434B984747F0080770
S2144035908A9C034638B16BE0E37A13F0110F73D17F
S2144035A016F0040F72D117F0080F3FD03B4B9847E8
S2144035B0A073C0F30723E373030C2374000E6074F8
S2144035C00023E37223776377A377E377627D267DD4
S2144035D046EA0226E17EA27E42EA0122A376E3760E
S2144035E02375637585980123037152EA06461BD0FE
S2144035F0D0F82C8031462A4B98470346002837D1CE
S2144036008598013EC6604146264B9847034658B1CA
S2144036102EE016F0020F04D013F0010F01D007235E
S21440362026E016F0080F01D047F02007859BDB6A9E
S214403630EB612C62AF71627D237D43EA0222E17E1C
S214403640A37E43EA012343EA02432B61E27FA37F42
S2144036501B0443EA0263227F1343627F43EA02234A
S214403660EB600023AB60AB61859A2A60D288AA8063
S21440367018460DF50E7DBDE8F08116F01C0F01D101
S21440368006237DE7062378E70723F1E70823EFE7DD
S21440369049234000CD314000252E4000D521400032
S2144036A0C52A4000B52640002DE9F04F83B00446B9
S2144036B08946164698460023C8F800308188006838
S2144036C0754B98470190002840F0E280A37913F0AC
S2144036D0800F40F0DB8013F0020F02D107230193E6
S2144036E0D6E0E368F3420ED2002E74D10BE0002100
S2144036F06A4B98470346206103E06169674B9847E9
S2144037000346002B7AD1A368E268934288BFE36001
S214403710A37943F02003A371BAE0A37963F07F0353
S214403720A37102230193B3E0A37963F07F03A371EF
S21440373001230193ACE00021594B9847002868D0FC
S214403740A37963F07F03A37101230193A0E0A379DB
S21440375063F07F03A3710223019399E0A37963F09A
S2144037607F03A3710123019392E04FF4007209EBAB
S214403770412130304B4B9847236800221A716CE049
S214403780A268E3689A426BD2A561A568C5F30805AE
S214403790C5F50075B54228BF3546A1692068404B3F
S2144037A0984700286BD1A068C0F3080030302368E3
S2144037B02A46494618443B4B9847236801221A71CB
S2144037C0A944A3682B44A360D8F800302B44C8F81B
S2144037D00030761B97D0A268C2F30803002BD4D1E2
S2144037E020688378013B03EA522313F0FF070BD18E
S2144037F0002A82D12369002B3FF479AF012B8CD06D
S214403800B3F1FF3F90D063612068C26AA3699A42D1
S21440381091D0D4F800A061695046234B984705469E
S214403820002894D03D445FEA562BA9D09AF802303F
S21440383007EB0B029A4288BFA3EB070B5FFA8BF3AA
S2144038402A4649469AF80100184FB847002885D1BD
S2144038502068C16A491B8B4587D84FEA4B25AFE79E
S214403860002150460E4B984710B92368DD628BE71F
S214403870A37963F07F03A3710123019308E0A37942
S21440388063F07F03A3710123019301E002230193B8
S214403890019803B0BDE8F08F85224000052A40001D
S2144038A0B52640002D2240004F224000E520400033
S2144038B038B50446818800681F4B9847034618B9B8
S2144038C0A27912F0200F01D1184638BDE169206870
S2144038D01A4B984703460028F6D1256AEB7A43F000
S2144038E02003EB72E3682B77A3891B0A6B77E38987
S2144038F0AB77E37BEB772369AB76238A1B0AEB76C1
S214403900638A2B75638A1B0A6B750D4B9847A8759F
S214403910C0F30723EB75030C2B76000E6876A3796D
S21440392023F02003A371236801221A712068054BF7
S21440393098470346C8E700BF85224000B5264000AA
S214403940D52140000131400010B50446034B98474E
S214403950034608B900222260184610BDB138400020
S21440396010B582B00C468DF8000001AB01226946C6
S2144039702046054CA047019B012B0CBF01204FF071
S214403980FF3002B010BD00BFA9364000F8B503783E
S2144039907BB10E460546441C074F31461846B8478D
S2144039A0B0F1FF3F06D0601B14F8013B002BF4D16A
S2144039B0F8BD0020F8BD00BF613940007F2819D906
S2144039C071B9C72813D00C4A012332F8021F81422E
S2144039D003D001339BB2802BF7D18033D8B27047E7
S2144039E0FF2806D88038044B33F810007047002371
S2144039F0F3E70020704700BF48714000612810D0B0
S214403A00094901226223984205D0013231F8023F2B
S214403A10002BF8D103E018B1044B33F8120070477E
S214403A2070470022F8E700BF4A7240002874400002
S214403A30F0B583B004460E4600230193344B9842BB
S214403A4016D0344B98421DD0334B984224D0334B3B
S214403A509C422BD0324B9C4232D0324B9C4239D087
S214403A60314B9C4240D0314B9C4247D003B0F0BDD6
S214403A701F462F4D01A93846A8470028FAD1019B7A
S214403A803370E4E71F462A4D01A93846A847002868
S214403A90FAD1019B3370DDE71F46254D01A9384614
S214403AA0A8470028FAD1019B3370D6E71F46204D21
S214403AB001A93846A8470028FAD1019B3370CFE7C2
S214403AC01F461B4D01A93846A8470028FAD1019B3E
S214403AD03370C8E71D46164C01A92846A047002863
S214403AE0FAD1019B3370C1E71D46114C01A9284607
S214403AF0A0470028FAD1019B3370B7E71D460C4C0F
S214403B0001A92846A0470028FAD1019B3370ADE7AB
S214403B1000C20040000202400042024000820140D3
S214403B2000C20140008200400002044000420340C0
S214403B30751D400070B50C46304B984216D0304B41
S214403B4098421CD02F4B984222D02F4B984228D0D8
S214403B502E4B98422ED02E4B984234D02D4B984226
S214403B603AD02D4B984240D0002070BD1E462B4D7B
S214403B7021463046A8470028FAD1012070BD1E468F
S214403B80264D21463046A8470028FAD1012070BD70
S214403B901E46224D21463046A8470028FAD101202D
S214403BA070BD1E461D4D21463046A8470028FAD116
S214403BB0012070BD1E46194D21463046A8470028B4
S214403BC0FAD1012070BD1E46144D21463046A84706
S214403BD00028FAD1012070BD1E46104D21463046C1
S214403BE0A8470028FAD1012070BD1E460B4D21463D
S214403BF03046A8470028FAD1012070BD00C20040D8
S214403C0000020240004202400082014000C20140E1
S214403C10008200400002044000420340611D400014
S214403C202DE9F047ADF5AF5D82B001279A4B1F7086
S214403C30BFF35F8F62B6994B9847994B9847994D1B
S214403C40994B1D60994A9A4B1A609A4A9A4B1A6049
S214403C504FF4E1330293C02303934FF4006304937D
S214403C60002405940694954E3046954B9847394621
S214403C703046944B9847944A02A92846934B984717
S214403C802846934B98472846924B9847924E33681F
S214403C9021469868914DA847336821465868A847FA
S214403CA08F4B98478F48904CA047904A90499148F0
S214403CB0A047DFF8B49226468F4FDFF8B0823AE04E
S214403CC04046B0478D48B04700258D4C2846A04713
S214403CD00228FBD10020B8470128F1D00028F9D1AE
S214403CE08848B0474FF40C7200210DF59D501830AF
S214403CF0854B98470DF59D5118310020834B9847CA
S214403D000B281BD08248B0478248B04782493023B0
S214403D100B700A220DF59C501430804B9847014694
S214403D2080B17F48B0477F48B0470025744C28464E
S214403D30A0470228FBD14846B047CBE70B2178483E
S214403D40B047F0E77248B0477748B04741F289320B
S214403D50764902A8764B98470024A246754DCDF882
S214403D6004A00DF59C51143102A8A847E0B10134D7
S214403D70642CF4D170497148B0470DF59C5014300E
S214403D806F4B98476F48B0476248B0476E493023FC
S214403D900B700A220DF59C501430604B9847014634
S214403DA050B15F48B047BEE70DF59C501430644BA9
S214403DB098476648B047B6E75548B0476448B04766
S214403DC00024A24604E0013442F210739C4214D010
S214403DD0CDF804A001AB4FF4007202A90DF59C503B
S214403DE014305C4DA8470028EDD00DF59C5014309B
S214403DF0534B98475548B04795E757494F48B047C3
S214403E000DF59C5014304E4B98474E48B0474148AD
S214403E10B047524930230B700A220DF59C5014309F
S214403E203E4B9847014610B13D48B0477BE738487F
S214403E30B0474B48B04700242546019501AB4FF4A8
S214403E40806202A90DF59C501430DFF808A1D047D7
S214403E50002840F08D80013441F288339C42ECD1FA
S214403E603D493648B0470DF59C501430344B984782
S214403E703448B0472748B0473A4930230B700A22A7
S214403E800DF59C501430254B98470146002877D0B6
S214403E902348B04747E700BFB8000020C51240009F
S214403EA021164000004203401C0B0020353B4000DA
S214403EB0180B0020313A4000140B0020004003400D
S214403EC071174000FD18400000002707011D400004
S214403ED0551D40005B1D4000C0000020C942400008
S214403EE0B903400008764000D14040003876400094
S214403EF04476400050764000E10B4000AC764000EF
S214403F00E5034000D47640002D424000E9344000AE
S214403F100077400008774000247740001135400085
S214403F20F076400080784000347740009C7840002F
S214403F30F94040008D39400084A107006477400076
S214403F4049394000787740009077400058774000E5
S214403F50A4774000A936400000204E00CC774000B1
S214403F60E077400008784000687640009876400049
S214403F700DF59C501430344B98473448B047D2E641
S214403F803348B0473348B04700242546019501AB37
S214403F904FF4006202A90DF59C501430DFF8DCA007
S214403FA0D04738B10DF59C501430274B98472748DA
S214403FB0B047B8E6013441F288339C42E6D1264900
S214403FC02648B0470DF59C5014301F4B9847244860
S214403FD0B0472448B047244930230B700A220DF5D9
S214403FE09C501430214B9847014610B12048B047AA
S214403FF099E61748B0471F48B04700242546019524
S21440400001AB4FF4805202A90DF59C501430DFF8F6
S2144040106CA0D04738B10DF59C5014300A4B9847E9
S2144040200A48B0477FE6013441F288339C42E6D1E5
S21440403011490A48B0470DF59C501430024B98473A
S2144040400748B0476FE600BF493940005877400000
S214404050007740001C78400000409C006477400099
S214404060787740000877400044784000113540009B
S214404070F07640005878400000803801A93640006D
S21440408070B50F4E0F4D761BB61018BF002405D0E6
S214404090013455F8043B9847A642F9D10A4E0B4DD9
S2144040A0761B04F075FEB61018BF002406D0013407
S2144040B055F8043B9847A642F9D170BD70BD00BF85
S2144040C09C8D40009C8D4000A48D40009C8D4000FF
S2144040D00FB400B5074983B004AB086853F8042B07
S2144040E08168019300F000FA03B05DF804EB04B079
S2144040F0704700BFC0000020844641EA000313F02A
S21440410003036DD1403A41D351F8043B40F8043B99
S21440411051F8043B40F8043B51F8043B40F8043B5C
S21440412051F8043B40F8043B51F8043B40F8043B4C
S21440413051F8043B40F8043B51F8043B40F8043B3C
S21440414051F8043B40F8043B51F8043B40F8043B2C
S21440415051F8043B40F8043B51F8043B40F8043B1C
S21440416051F8043B40F8043B51F8043B40F8043B0C
S21440417051F8043B40F8043B51F8043B40F8043BFC
S21440418051F8043B40F8043B403ABDD2303211D39C
S21440419051F8043B40F8043B51F8043B40F8043BDC
S2144041A051F8043B40F8043B51F8043B40F8043BCC
S2144041B0103AEDD20C3205D351F8043B40F8043B9C
S2144041C0043AF9D2043208D0D2071CBF11F8013B9A
S2144041D000F8013B01D30B8803806046704700BF60
S2144041E0082A13D38B078DD010F003038AD0C3F16F
S2144041F00403D21ADB071CBF11F8013B00F8013B51
S21440420080D331F8023B20F8023B7BE7043AD9D30F
S214404210013A11F8013B00F8013BF9D20B780370E4
S2144042204B7843708B7883706046704770B48607CF
S21440423046D0541E002A41D0CAB2034602E014F1CA
S214404240FF343BD303F8012B9D07F8D1032C2ED91E
S214404250CDB245EA05250F2C45EA054519D903F1A7
S21440426010022646103E0F2E42F8105C42F80C5CB8
S21440427042F8085C42F8045C02F11002F2D8A4F15D
S214404280100222F00F0204F00F041032032C1344E5
S2144042900DD91E462246043A032A46F8045BFAD84D
S2144042A0221F22F003020432134404F003042CB10C
S2144042B0C9B21C4403F8011B9C42FBD170BC70473A
S2144042C014460346C2E700BF00290CBF0222002264
S2144042D04FF4806300F000B82DE9F043614C256848
S2144042E083B004460F4690461E4615B1AB6B002B76
S2144042F064D0B8F1020F06D0B8F1010F00F29F80EB
S214404300002EC0F29C80636ED80734D521462846DE
S21440431001F088F8216B41B104F14003994202D084
S214404320284601F0FDF900232363B4F90C3000223F
S214404330A26162601A063AD423F44A6323F0030368
S214404340B8F1020FA3811DD001AB6A46214628462C
S21440435001F084FCA3891843A081002E32D1009E30
S214404360304601F0F3FC074600286BD0A38943F0A3
S2144043708003A38128E0A3899905C7D4A06D01F0E6
S21440438069FCC3E70025616E002604F1430243F052
S21440439002030120A660CE07A381226022616061ED
S2144043A001D498053ED5284603B0BDE8F083216980
S2144043B0284601F0B5F9B4F90C30BDE7284601F0BF
S2144043C089F896E7002FCBD0AB6B002B33D0009B01
S2144043D0B4F90C2027609E421CBF42F40062A281C2
S2144043E0B8F1010F04BF42F00102A28192B212F06E
S2144043F00803276166610ED0D1071AD5656E7642EE
S214404400002315F00105A661A36009D000252846C3
S21440441003B0BDE8F083A360656E15F00105F5D1E5
S2144044209305C0D4A06D01F017FC284603B0BDE844
S214404430F083A660F0E7284601F04CF8C7E74FF057
S214404440FF35B0E7DDF80090B14504D0484601F0AE
S2144044507DFC074620B9B4F90C304FF0FF3592E7A3
S2144044604E4683E7C00000202DE9F84F4B6E9C0473
S21440447093462FD59368126853B30E46074602F10B
S214404480080919E920045FEA9A0817D0043D002479
S21440449001E0A04510D0324655F8041F384601F0DA
S2144044A0BBF8431C04F10104F3D10023CBF80830D9
S2144044B0CBF80430BDE8F88FDBF808302AF0030A62
S2144044C0A3EB0A03CBF8083009F10809002BD8D132
S2144044D00020EAE701F00AFA0023CBF80830CBF8D0
S2144044E00430BDE8F88F00BF2DE9F04FADB01D4653
S2144044F08B4690460793069018B1836B002B00F0CE
S214404500F380DBF86430BBF90C00DF0781B202D4DD
S2144045108E0540F1FC808C040AD4DBF8643040F40D
S214404520005123F40053ABF80C10CBF8643089B23A
S214404530080740F1B380DBF81030002B00F0AE8067
S21440454001F01A030A2B00F0B58000230DF1700924
S2144045500B93119310930393CDF83C90CA46CDF835
S21440456010B098F800304446FBB1252B02D11CE031
S214404570252B03D014F8013F002BF9D1A4EB0805F6
S2144045809DB1109B119ACAF8008001332A44072B2C
S214404590CAF80450119210937ADD002A40F0B08495
S2144045A0039B10922B44CA4603932378002B00F0BB
S2144045B0E08300204FF000038DF8373004F1010807
S2144045C062780546064603464FF0FF3408F1010878
S2144045D0A2F12001582900F2DE82DFE811F0210224
S2144045E0DC02DC022902DC02DC02DC02DC02DC0249
S2144045F0DC0289029502DC02A200BD02DC029F01B9
S214404600A401A401A401A401A401A401A401A4013D
S214404610A401DC02DC02DC02DC02DC02DC02DC029E
S214404620DC02DC02DC02B201DC02DC02DC02DC0280
S214404630DC02DC02DC02DC02DC02DC029701DC028B
S214404640DC02DC02DC02DC029B01DC02DC02530200
S214404650DC02DC02DC02DC02DC02DC02DC02DC0225
S214404660DC02DC025A021B02DC02DC02DC026E02C6
S2144046701B02DC02DC027302DC02F5018201090245
S214404680D702DC029A02DC02A700DC02DC022E0221
S2144046900AF1080A039B2B44039386E7594606987B
S2144046A000F0ACFD18BBBBF80C1001F01A030A2B47
S2144046B07FF44BAFBBF90E30002BFFF646AFDBF86E
S2144046C06430DB0705D48F0503D4DBF8580001F0CF
S2144046D0C3FA2B4642465946069800F04DFD0390D5
S2144046E003982DB0BDE8F08F00F0F4FE09E7DBF844
S2144046F06430D90704D4BBF80C309A0540F1AA843C
S2144047004FF0FF33039303982DB0BDE8F08FDBF8EE
S214404710580001F09FFABBF90C0081B2FBE67642E6
S214404720079243F0040398F800204FE708969E0649
S21440473000F150840799DD060A4600F1EF835806DB
S21440474040F1EC830E8804310027012207914FF098
S21440475000018DF837100025611C00F0168123F00B
S2144047608001029156EA070140F01481002C40F087
S2144047705C83002A40F0B78313F00103059300F0F2
S21440478057840DF1B00B30230BF8413D059BA342F7
S214404790B8BF234601930DB101330193029B13F03A
S2144047A00203099302D0019B02330193029B13F04C
S2144047B084030A9340F01782089B019A9D1A002DA5
S2144047C040F31182102D40F39084109B119AC44EF2
S2144047D0D6461027A2461946069C07E001F1020C71
S2144047E00EF1080E0146103D102D11DD481C10320A
S2144047F0072811928EE8C0001090EFDD002A40F0A6
S214404800E481103D102D11464FF0010CCE46EDDCF4
S21440481054466146F2462A4407291192CAF8006077
S214404820CAF80450109100F3EC829DF837500AF114
S214404830080A481C002D40F0DE81099B002B00F042
S214404840F88102320EA902230728119210908AE8B6
S2144048500A0040F3EA81002A40F08C830A9B802BB2
S2144048604FF001001146CA4640F0E781089B019D83
S2144048705E1B002E40F3E181102E9A4D40F350848B
S214404880D4461027A246069C07E001F1020E0CF122
S214404890080C0146103E102E11DD481C1032072829
S2144048A011928CE8A0001090EFDD002A40F09D8227
S2144048B0103E102E4FF0010E1146CC46EDDC54460D
S2144048C0E2463244BEF1070F11928AE86000CDF806
S2144048D040E000F369830AF1080A0EF101007146D0
S2144048E0ABE1089613F0200240F08C8313F01001E1
S2144048F040F01A8313F0400200F0168307980A46E9
S2144049000146043106880791002720E7089643F0C1
S2144049101003E7E7089643F0100308E743F08003E8
S21440492098F8002052E6A2F13001002618F8012B34
S21440493006EB860601EB4606A2F130010929F5D9B9
S21440494046E60896002840F0088443F010039E068A
S21440495000F14C83DD0600F1F382580640F1F08208
S214404960079DB5F900602A46F717043230463946A7
S2144049700792002871F10002C0F25D83611C9DF829
S21440498037504FF001027FF4EAAE56EA070100F0D6
S2144049904D820293012A00F08C82022A40F05C820B
S2144049A00B98CB46330906F00F0143EA07733A09E2
S2144049B01E461746435C0BF8013D56EA0703F1D105
S2144049C0A9EB0B030593E1E6002840F0C083990667
S2144049D000F16783DA0600F1F1805B0640F1EE8075
S2144049E0079A136804320792BDF80C201A80B8E57F
S2144049F007983D4A08960B92066878223021043084
S214404A008DF8392043F00203079000278DF83810C0
S214404A1002229CE60896002899D08DF8375096E7F3
S214404A2098F80020002D7FF4D1AD01202025CDE55B
S214404A3043F0010398F80020C8E50896002840F0A7
S214404A40938329490B919F0600F1E8820798DE067A
S214404A50014600F170825D0640F16D8204310688A1
S214404A6007910027D80740F1228256EA070100F056
S214404A701E8230218DF8392043F002038DF838101D
S214404A80022264E60896002840F06B8317490B9193
S214404A90D9E7079908960A688DF848204FF0000035
S214404AA00A468DF83700043201200190079205909F
S214404AB00DF1480B0293002470E643F0400398F84B
S214404AC0002083E598F800206C2A03BF98F8012060
S214404AD043F0200308F1010843F0100376E500BFD9
S214404AE05C8C40006C8C4000408C40002C8C40001D
S214404AF007990E680A46002E02F10402FFF60FAE32
S214404B00079298F8002061E598F8002001202B25B0
S214404B105CE507990896D1F800B04FF000028DF892
S214404B2037200E1DBBF1000F00F0E582671C00F039
S214404B30C482224600215846019301F0D9FB019BCE
S214404B40002800F0E582A0EB0B0205920796029340
S214404B509DF83750002419E698F800202A2A08F1D4
S214404B60010700F0E982A2F130010929B8464FF06A
S214404B7000043FF62DAD18F8012B04EB840401EB3E
S214404B804404A2F130010929F5D921E543F0200378
S214404B9098F800201AE50896002840F0DB82002AA4
S214404BA000F0E78001218DF848204FF00002019187
S214404BB08DF8372005910DF1480B7BE7079A13686F
S214404BC004320792039A1A60CBE40FAA049920464F
S214404BD0FFF74AFC002840F039811099119A01F1FC
S214404BE0010CCE46FFE51099119A481C9DF83750A7
S214404BF0002D3FF422AE01320DF137050121072882
S214404C0011921090CAF80050CAF8041040F3088178
S214404C10002A40F0BC81099B002B3FF41FAE0EAB30
S214404C20022208461C931D92CA4601460AF1080A0B
S214404C3001300A9B802B3FF419AE059BE41A002CEA
S214404C402EDD102CB34D1EDDD6461026069FDDF811
S214404C5010A006E0881C0EF1080E1946103C102CD9
S214404C6010DD4B1C1032072B11928EE8600010931B
S214404C70F0DD002A65D1103C102C4FF001001146A3
S214404C80CE46EEDCF246224407281192CAF800507F
S214404C90CAF80440109000F385800AF1080A0130F3
S214404CA00599CAF800B00A4407281192CAF80410B9
S214404CB0109040F38280002A40F01881029B1092A8
S214404CC0580735D5089B01995C1A002C40F3E780BD
S214404CD0CA46102C40F3188210998F4E069FDDF876
S214404CE010B0102506E0881C0AF1080A1946103C48
S214404CF0102C11DD4B1C1032072B1192CAF80060A5
S214404D00CAF804501093EEDD42BB103C102C4FF016
S214404D1001001146CA46EDDC224407281192CAF823
S214404D200060CAF80440109051DD002A40F09B8194
S214404D30039B089A01998A42ACBF9B185B18039361
S214404D404EE00FAA51463846FFF78EFB002840F04B
S214404D503F811099119A481CCE467FE70FAA5946C4
S214404D603846FFF781FB60B91099119A481CCA462D
S214404D70BDE7119BDDF810B0002B40F0D481002336
S214404D801093DBF8643013F0010FBBF80C3002D1FF
S214404D909A0540F1DE805B063FF5B2AC03982DB035
S214404DA0BDE8F08F002A40F00681059A1D92012347
S214404DB01192CDF870B01093CA460AF1080A029BC9
S214404DC0590704D5089B01995C1A002C81DC039B8B
S214404DD0089901988142ACBF5B181B18039372BBBD
S214404DE000231093CA46FFF7BCBB0FAA049920467F
S214404DF0FFF73AFB50BB1099119A01F1010ECC46D1
S214404E0048E5002A40F040819DF83710002900F020
S214404E101B8101220DF1370110461D921C91CA4696
S214404E2001460AF1080A013007E5029B012A00F014
S214404E309880022A0DD1029300260027B0E50FAADB
S214404E4004990698FFF710FB0028C9D0DDF810B08B
S214404E5097E7029300260027494600E05946F208A5
S214404E6042EA4772F80806F007030746164630330C
S214404E7056EA070201F8013C01F1FF3BEED1029AE7
S214404E80D6077FF59DAD302B3FF49AAD02393023DF
S214404E900BF8013CA9EB010305938B4676E4039B94
S214404EA0089A8A42ACBF9B185B18039398E7022285
S214404EB04DE4002F08BF0A2E52D3CB463046394623
S214404EC00A22002301F018FF30320BF8012D30463D
S214404ED0394600230A2201F00FFF06460F4656EADF
S214404EE00703EBD16CE50594CB464FE40FAA049933
S214404EF00698FFF7B9FA0028A8D1119ACA465EE785
S214404F000FAA04990698FFF7AFFA00289ED1CA4622
S214404F10FFF7C0BB6C8C40005C8C400004311668C8
S214404F2007910122002712E40798014604310668DB
S214404F30079100270BE40E6804310791002791E59E
S214404F4007990E680A46F7170432079230463946E4
S214404F500FE5DBF8580000F07FFEBBF80C301AE790
S214404F60029B02930DF1B00B303601230BF8416DD6
S214404F7005930BE40FAA04990698FFF775FA0028E4
S214404F807FF464AF1099119A481CCA4651E60FAA9E
S214404F9004990698FFF768FA00287FF457AF1099EF
S214404FA0119A481CCA4648E4002A40F091800120E5
S214404FB01146CA4641E60FAA04990698FFF754FAE6
S214404FC000287FF443AF1098119A0130CA4667E62E
S214404FD0D346D6E6079E073626F0070202F10801BA
S214404FE0D2E9006707910122FFF7B1BB079E07365B
S214404FF026F00706D6E9000106F1080207920646A3
S2144050000F46B6E4079E073626F0070202F108016F
S214405010D2E9006707910022FFF799BB079E073643
S21440502026F0070101F108000790D1E9006719E56D
S214405030CB46FFF7ABBB2D25764267EB47078DF88F
S21440504037500122FFF788BB099BB3B911460120B0
S214405050CA46F2E5DBF8580000F0FEFD4FF0FF339D
S2144050600393FFF750BB0FAA04990698FFF7FCF985
S21440507000287FF4EBAE119AA9E60EAB02221C93F1
S2144050801D920120CA46D0E50FAA04990698FFF75C
S214405090EBF900287FF4DAAE1099119A481CCA46FC
S2144050A0A4E5079A03991368CD17084604322946A3
S2144050B00792C3E90001FFF754BA58460796029391
S2144050C001F0DEFB002405909DF83750FFF75EBBED
S2144050D00FAA04990698FFF7C7F900287FF4B6AEE2
S2144050E01099119A481CCA46A7E51099119A204E65
S2144050F00131FFF790BB062C28BF0624059407967F
S2144051000194DFF870B0D5E41098194E013003E6EC
S21440511005949DF83750079602930446FFF736BB32
S2144051208646FFF7CEBB06980FAA5946FFF79CF96E
S21440513000283FF424AE24E6079998F801200C682E
S214405140043144EAE474B8460791FFF73FBA8DF855
S21440515037503CE48DF8375021E58DF83750FFF74F
S214405160F4BB8DF8375091E48DF8375069E400BFB2
S2144051705C8C4000548C40002DE9F0410C46ADF567
S2144051808D6D8989666EE589199621F0020106467D
S214405190E069ADF80C1017464FF48061626AADF8CE
S2144051A00E5098461AAD0023079016A8099206930B
S2144051B0009504950291059100F048FD43463A4615
S2144051C069463046FFF790F9051E07DB30466946CC
S2144051D000F028F9002818BF4FF0FF35BDF80C3016
S2144051E05B0603D5A38943F04003A381169800F0DD
S2144051F02FFD28460DF58D6DBDE8F08138B5304B56
S2144052001B6805460C4613B19A6B002A38D0B4F991
S2144052100C2093B218070CD52069A8B113F00102F0
S2144052201ED0636900225B42A361A260F0B10020F9
S21440523038BDD9063CD5580726D4206942F0080325
S214405240A3819BB20028E9D103F42072B2F5007F17
S214405250E4D02846214600F02FFDA3892069DDE7EB
S214405260990758BF6269A2600028E0D1B4F90C30B3
S2144052701A06DDD543F04003A3814FF0FF3038BD1A
S214405280184600F027F9C2E7216B51B104F14003FC
S214405290994204D0284600F043FAB4F90C20002383
S2144052A0236300232069636022F024022060C5E760
S2144052B042F0400209232B604FF0FF30A28138BDF8
S2144052C0C0000020024B13B1024800F005B87047FA
S2144052D00000000045554000002301461A46184687
S2144052E001F0E2BBB1F90C309AB22DE9F0410D461F
S2144052F0110780463AD46A6843F40063002AAB81BB
S2144053006FDDAC6A002C49D000229BB2D8F8006012
S214405310C8F8002013F4805267D02A6D5F0705D581
S21440532069682B6B521A0BB1EB6BD21A0023E969F2
S2144053304046A047441C3CD0B5F90C302A692A6048
S21440534023F400630022AB81DB046A6047D4296BF8
S214405350C8F8006011B305F14003994202D04046B8
S21440536000F0DEF900202863BDE8F0812E69AEB17A
S2144053702C682E6091070CBF6B690023A41BAB60A2
S2144053800AE0234632466F6AE9694046B847002835
S214405390A4EB0004064404DD002CF2DC0020BDE84B
S2144053A0F081AB8943F04003AB814FF0FF30BDE85E
S2144053B0F081D8F800401D2CF3D8194BE340DB436E
S2144053C013F00103EDD1B5F90C206B6022F40063B5
S2144053D02969AB81DA042960B9D5002CB7D1286594
S2144053E0B5E7EA6B002A8CDCD8E70123E96940463A
S2144053F0A047431C024602D0AB89AC6A8EE7D8F879
S2144054000030002BF8D01D2B01D0162B02D1C8F847
S2144054100060C3E7AB8943F04003AB81BDE8F08151
S2144054200100402038B50D46044608B1836BBBB139
S214405430B5F90C0088B16B6EDB0701D4810517D532
S21440544020462946FFF74EFF6B6EDA07044602D425
S214405450AB899B0507D5204638BD0446204638BD57
S21440546000F038F8E4E7A86D00F0F6FB204638BDBB
S214405470A86D00F0EFFBE3E7014900F0AFBB00BFCB
S214405480916B400010B5002304468181C2810360C1
S2144054904360836043660361436183611946082223
S2144054A05C30FEF7C3FE07480749084A084B2062AF
S2144054B0E4616162A262E36204F15800BDE8104014
S2144054C000F0C4BBE167400005684000416840000A
S2144054D06168400010B50446124800F0BBFBA26B62
S2144054E0D2B904F53B731048C4F8E8320321C4F837
S2144054F0E022E063C4F8E41260680421FFF7C2FFCC
S21440550001220921A068FFF7BDFF02221221E068B0
S214405510FFF7B8FF0123A3630248BDE8104000F040
S2144055209BBB00BF2C0B002079544000014800F084
S21440553091BB00BF400B0020014800F08DBB00BF70
S214405540400B002038B50A4C0A4D641BA4100AD004
S21440555004F18043013B05EB8305013C55F80439D3
S2144055609847002CF9D1BDE8384003F01BBC00BF7B
S214405570B48D4000B08D40002DE9F04782B08046A3
S2144055808946144600F054FB012836D04A4604F1BA
S2144055905C0301A9404601F039FA421C064625D074
S2144055A0A8B39DF804E000250DF1040A09E023683D
S2144055B05A1C226083F800E00135B54227D215F820
S2144055C00AE0A368013B002BA360F0DAA769BB4260
S2144055D071462246404602DBBEF10A0FE7D101F093
S2144055E0BDF9431CE8D102B0BDE8F087A38943F07B
S2144055F04003A38102B0BDE8F08709F1FF33FE2BDC
S214405600C4D85FFA89FE06468DF804E0CBE74846E4
S21440561002B0BDE8F08700BF30B5536E13F0010FFF
S214405620B2F90C30144683B005469AB201D19005C3
S2144056301CD5900406D4626E43F4005342F40052E4
S214405640A381626628462246FFF796FF636EDA0716
S214405650054602D4A3899B0502D5284603B030BD33
S214405660A06D00F0F9FA284603B030BDA06D019158
S21440567000F0F0FAB4F90C3001999AB2D9E700BFBD
S214405680F8B5244F0C46064600F0E6FEBB685D685B
S214405690C4F57E610F3125F00305294421F47F616E
S2144056A021F00F01A1F58054B4F5805F07DB00219F
S2144056B0304601F083F8BB682B44984204D030460D
S2144056C000F0D0FE0020F8BD6142304601F076F88A
S2144056D001300DD0104BBA6819682D1B45F00105F6
S2144056E03046091B5560196000F0BCFE0120F8BD2D
S2144056F00021304601F062F8BA68831A0F2BDEDDCF
S214405700064C0549246843F00103001B53600860BB
S214405710D5E700BF60060020D80A0020680A0020AF
S214405720002944D02DE9F0410D46804600F094FE15
S21440573055F8047C694927F00103A5F10804E218EE
S2144057408E685068B24220F003005ED0FE0750607C
S2144057500BD455F8087CE41B01F1080EA568754586
S2144057603B446DD0E768EF60BD6015186D68ED0787
S2144057703ED543F001026260E350B3F5007F17D296
S214405780DB08581C9A104D6851F83070A76001230A
S214405790934001EBC0022B43083AE2604B6041F86D
S2144057A03040FC604046BDE8F04100F05BBE7047CC
S2144057B05A0A042A52D89A0902F13907FF0002F120
S2144057C03805C819CA59083890424FD0516821F058
S2144057D003018B4232D292689042F7D1C368A060F0
S2144057E0E3609C60C4604046BDE8F04100F03ABECD
S2144057F095683B4FBD42034440D0D068E86043F0D4
S214405800010285606260E350B7E7FF07034407D4B0
S21440581055F8082CA41A1344A068E268C260906049
S214405820304A126843F00100934260608C60B9D3FE
S2144058302D4B40461968FFF723FFB3E71046CDE7E8
S21440584011184968C90744D49168D268CA600344AD
S21440585043F0010091606060E350A3E7142A16D835
S21440586002F15C07FF0002F15B05AAE7AA100123DC
S2144058704D6893402B434B600346B0E743F001022C
S2144058804C610C61E560A5606260E3508AE7542A8B
S21440589006D81A0B02F16F07FF0002F16E0590E77B
S2144058A0B2F5AA7F06D8DA0B02F17807FF0002F1BC
S2144058B0770586E740F25450824206D89A0C02F1A9
S2144058C07D07FF0002F17C057BE74FF47E777E255F
